{
  "_format": "hh-sol-artifact-1",
  "contractName": "CSP",
  "sourceName": "contracts/CSP.sol",
  "abi": [
    {
      "inputs": [
        {
          "internalType": "address",
          "name": "_identityCon",
          "type": "address"
        },
        {
          "internalType": "address",
          "name": "_logCon",
          "type": "address"
        },
        {
          "internalType": "address",
          "name": "_aclCon",
          "type": "address"
        },
        {
          "internalType": "address",
          "name": "_integrityCon",
          "type": "address"
        }
      ],
      "stateMutability": "nonpayable",
      "type": "constructor"
    },
    {
      "inputs": [],
      "name": "checkCSP",
      "outputs": [
        {
          "internalType": "bool",
          "name": "",
          "type": "bool"
        }
      ],
      "stateMutability": "view",
      "type": "function"
    },
    {
      "inputs": [
        {
          "internalType": "address",
          "name": "",
          "type": "address"
        }
      ],
      "name": "fireCred",
      "outputs": [
        {
          "internalType": "bytes",
          "name": "",
          "type": "bytes"
        }
      ],
      "stateMutability": "view",
      "type": "function"
    },
    {
      "inputs": [],
      "name": "getAllFiles",
      "outputs": [
        {
          "components": [
            {
              "internalType": "address",
              "name": "csp",
              "type": "address"
            },
            {
              "internalType": "string",
              "name": "desc",
              "type": "string"
            },
            {
              "internalType": "string",
              "name": "fileLocationHash",
              "type": "string"
            },
            {
              "internalType": "string",
              "name": "encDataHash",
              "type": "string"
            },
            {
              "internalType": "string",
              "name": "createdAt",
              "type": "string"
            }
          ],
          "internalType": "struct CSP.File[]",
          "name": "",
          "type": "tuple[]"
        }
      ],
      "stateMutability": "view",
      "type": "function"
    },
    {
      "inputs": [],
      "name": "getAllRegisteredCSPs",
      "outputs": [
        {
          "components": [
            {
              "internalType": "string",
              "name": "CSP_name",
              "type": "string"
            },
            {
              "internalType": "address",
              "name": "CSP_Address",
              "type": "address"
            }
          ],
          "internalType": "struct CSP.Csp[]",
          "name": "",
          "type": "tuple[]"
        }
      ],
      "stateMutability": "view",
      "type": "function"
    },
    {
      "inputs": [],
      "name": "getCSPDetail",
      "outputs": [
        {
          "components": [
            {
              "internalType": "string",
              "name": "CSP_name",
              "type": "string"
            },
            {
              "internalType": "address",
              "name": "CSP_Address",
              "type": "address"
            }
          ],
          "internalType": "struct CSP.Csp",
          "name": "",
          "type": "tuple"
        }
      ],
      "stateMutability": "view",
      "type": "function"
    },
    {
      "inputs": [],
      "name": "getFireConfig",
      "outputs": [
        {
          "components": [
            {
              "internalType": "string",
              "name": "apiKey",
              "type": "string"
            },
            {
              "internalType": "string",
              "name": "authDomain",
              "type": "string"
            },
            {
              "internalType": "string",
              "name": "ProjectId",
              "type": "string"
            },
            {
              "internalType": "string",
              "name": "storageBucket",
              "type": "string"
            },
            {
              "internalType": "string",
              "name": "messagingSenderId",
              "type": "string"
            },
            {
              "internalType": "string",
              "name": "appId",
              "type": "string"
            },
            {
              "internalType": "string",
              "name": "measurmentId",
              "type": "string"
            }
          ],
          "internalType": "struct CSP.FirebaseConfig",
          "name": "",
          "type": "tuple"
        }
      ],
      "stateMutability": "view",
      "type": "function"
    },
    {
      "inputs": [
        {
          "internalType": "address",
          "name": "_user",
          "type": "address"
        },
        {
          "internalType": "address",
          "name": "_csp",
          "type": "address"
        }
      ],
      "name": "getFireCred",
      "outputs": [
        {
          "components": [
            {
              "internalType": "string",
              "name": "apiKey",
              "type": "string"
            },
            {
              "internalType": "string",
              "name": "authDomain",
              "type": "string"
            },
            {
              "internalType": "string",
              "name": "ProjectId",
              "type": "string"
            },
            {
              "internalType": "string",
              "name": "storageBucket",
              "type": "string"
            },
            {
              "internalType": "string",
              "name": "messagingSenderId",
              "type": "string"
            },
            {
              "internalType": "string",
              "name": "appId",
              "type": "string"
            },
            {
              "internalType": "string",
              "name": "measurmentId",
              "type": "string"
            }
          ],
          "internalType": "struct CSP.FirebaseConfig",
          "name": "",
          "type": "tuple"
        }
      ],
      "stateMutability": "view",
      "type": "function"
    },
    {
      "inputs": [],
      "name": "getGrantFiles",
      "outputs": [
        {
          "components": [
            {
              "internalType": "string",
              "name": "fileHash",
              "type": "string"
            },
            {
              "internalType": "string",
              "name": "location",
              "type": "string"
            }
          ],
          "internalType": "struct CSP.Grant[]",
          "name": "",
          "type": "tuple[]"
        }
      ],
      "stateMutability": "view",
      "type": "function"
    },
    {
      "inputs": [],
      "name": "getListedALLFiles",
      "outputs": [
        {
          "components": [
            {
              "internalType": "string",
              "name": "fileHash",
              "type": "string"
            },
            {
              "internalType": "string",
              "name": "location",
              "type": "string"
            },
            {
              "internalType": "string",
              "name": "createdAt",
              "type": "string"
            }
          ],
          "internalType": "struct CSP.FileLocation[]",
          "name": "",
          "type": "tuple[]"
        }
      ],
      "stateMutability": "view",
      "type": "function"
    },
    {
      "inputs": [],
      "name": "getLog",
      "outputs": [
        {
          "components": [
            {
              "internalType": "address",
              "name": "user",
              "type": "address"
            },
            {
              "internalType": "string",
              "name": "fileHash",
              "type": "string"
            },
            {
              "internalType": "string",
              "name": "grantTime",
              "type": "string"
            }
          ],
          "internalType": "struct LOG.AccessLog[]",
          "name": "",
          "type": "tuple[]"
        }
      ],
      "stateMutability": "view",
      "type": "function"
    },
    {
      "inputs": [
        {
          "internalType": "address",
          "name": "",
          "type": "address"
        },
        {
          "internalType": "uint256",
          "name": "",
          "type": "uint256"
        }
      ],
      "name": "grantedAccess",
      "outputs": [
        {
          "internalType": "string",
          "name": "fileHash",
          "type": "string"
        },
        {
          "internalType": "string",
          "name": "location",
          "type": "string"
        }
      ],
      "stateMutability": "view",
      "type": "function"
    },
    {
      "inputs": [],
      "name": "integrityCon",
      "outputs": [
        {
          "internalType": "contract Integrity",
          "name": "",
          "type": "address"
        }
      ],
      "stateMutability": "view",
      "type": "function"
    },
    {
      "inputs": [
        {
          "components": [
            {
              "internalType": "string",
              "name": "fileHash",
              "type": "string"
            },
            {
              "internalType": "string",
              "name": "location",
              "type": "string"
            },
            {
              "internalType": "string",
              "name": "createdAt",
              "type": "string"
            }
          ],
          "internalType": "struct CSP.FileLocation[]",
          "name": "fileLocations",
          "type": "tuple[]"
        }
      ],
      "name": "listStoredFiles",
      "outputs": [],
      "stateMutability": "nonpayable",
      "type": "function"
    },
    {
      "inputs": [
        {
          "internalType": "address",
          "name": "",
          "type": "address"
        },
        {
          "internalType": "uint256",
          "name": "",
          "type": "uint256"
        }
      ],
      "name": "listedFiles",
      "outputs": [
        {
          "internalType": "string",
          "name": "fileHash",
          "type": "string"
        },
        {
          "internalType": "string",
          "name": "location",
          "type": "string"
        },
        {
          "internalType": "string",
          "name": "createdAt",
          "type": "string"
        }
      ],
      "stateMutability": "view",
      "type": "function"
    },
    {
      "inputs": [
        {
          "internalType": "string",
          "name": "_CSP_name",
          "type": "string"
        },
        {
          "internalType": "string",
          "name": "_apikey",
          "type": "string"
        },
        {
          "internalType": "string",
          "name": "_authDomain",
          "type": "string"
        },
        {
          "internalType": "string",
          "name": "_projectId",
          "type": "string"
        },
        {
          "internalType": "string",
          "name": "_storageBucket",
          "type": "string"
        },
        {
          "internalType": "string",
          "name": "_messagingSenderId",
          "type": "string"
        },
        {
          "internalType": "string",
          "name": "_appId",
          "type": "string"
        },
        {
          "internalType": "string",
          "name": "_measurmentId",
          "type": "string"
        }
      ],
      "name": "registerCSP",
      "outputs": [
        {
          "internalType": "bool",
          "name": "",
          "type": "bool"
        }
      ],
      "stateMutability": "nonpayable",
      "type": "function"
    },
    {
      "inputs": [
        {
          "internalType": "address",
          "name": "_user",
          "type": "address"
        },
        {
          "internalType": "address",
          "name": "_csp",
          "type": "address"
        },
        {
          "internalType": "string",
          "name": "_fileHash",
          "type": "string"
        }
      ],
      "name": "requestFile",
      "outputs": [],
      "stateMutability": "nonpayable",
      "type": "function"
    },
    {
      "inputs": [
        {
          "internalType": "address",
          "name": "",
          "type": "address"
        },
        {
          "internalType": "uint256",
          "name": "",
          "type": "uint256"
        }
      ],
      "name": "requests",
      "outputs": [
        {
          "internalType": "address",
          "name": "user",
          "type": "address"
        },
        {
          "internalType": "string",
          "name": "fileHash",
          "type": "string"
        },
        {
          "internalType": "bool",
          "name": "isGranted",
          "type": "bool"
        }
      ],
      "stateMutability": "view",
      "type": "function"
    },
    {
      "inputs": [
        {
          "internalType": "address",
          "name": "_user",
          "type": "address"
        },
        {
          "components": [
            {
              "internalType": "address",
              "name": "csp",
              "type": "address"
            },
            {
              "internalType": "string",
              "name": "desc",
              "type": "string"
            },
            {
              "internalType": "string",
              "name": "fileLocationHash",
              "type": "string"
            },
            {
              "internalType": "string",
              "name": "encDataHash",
              "type": "string"
            },
            {
              "internalType": "string",
              "name": "createdAt",
              "type": "string"
            }
          ],
          "internalType": "struct CSP.File",
          "name": "_file",
          "type": "tuple"
        }
      ],
      "name": "uploadFile",
      "outputs": [],
      "stateMutability": "nonpayable",
      "type": "function"
    }
  ],
  "bytecode": "0x60806040526040516200001290620001f1565b604051809103906000f0801580156200002f573d6000803e3d6000fd5b50600560006101000a81548173ffffffffffffffffffffffffffffffffffffffff021916908373ffffffffffffffffffffffffffffffffffffffff1602179055503480156200007d57600080fd5b5060405162004eba38038062004eba8339818101604052810190620000a3919062000269565b336000806101000a81548173ffffffffffffffffffffffffffffffffffffffff021916908373ffffffffffffffffffffffffffffffffffffffff16021790555083600160006101000a81548173ffffffffffffffffffffffffffffffffffffffff021916908373ffffffffffffffffffffffffffffffffffffffff16021790555082600360006101000a81548173ffffffffffffffffffffffffffffffffffffffff021916908373ffffffffffffffffffffffffffffffffffffffff16021790555081600460006101000a81548173ffffffffffffffffffffffffffffffffffffffff021916908373ffffffffffffffffffffffffffffffffffffffff16021790555080600260006101000a81548173ffffffffffffffffffffffffffffffffffffffff021916908373ffffffffffffffffffffffffffffffffffffffff16021790555050505050620002db565b6104618062004a5983390190565b600080fd5b600073ffffffffffffffffffffffffffffffffffffffff82169050919050565b6000620002318262000204565b9050919050565b620002438162000224565b81146200024f57600080fd5b50565b600081519050620002638162000238565b92915050565b60008060008060808587031215620002865762000285620001ff565b5b6000620002968782880162000252565b9450506020620002a98782880162000252565b9350506040620002bc8782880162000252565b9250506060620002cf8782880162000252565b91505092959194509250565b61476e80620002eb6000396000f3fe608060405234801561001057600080fd5b50600436106101165760003560e01c806385e1a738116100a2578063b4e0552711610071578063b4e05527146102f8578063c326f59f14610316578063d9f4a19d14610348578063f3974cfe14610366578063ff24b5d51461038457610116565b806385e1a7381461025a578063899b5ff51461028a578063909e4ab6146102a85780639ecebe2a146102c657610116565b80632a6150d5116100e95780632a6150d5146101a35780634513798a146101bf57806354378cab146101ef578063651a004d146102205780636f96cbd81461023c57610116565b80630771d24a1461011b5780631bb7e1cd146101375780631bceca6414610155578063226381b614610173575b600080fd5b610135600480360381019061013091906129dd565b6103a2565b005b61013f6105d7565b60405161014c9190612b04565b60405180910390f35b61015d610716565b60405161016a9190612bec565b60405180910390f35b61018d60048036038101906101889190612c0e565b610850565b60405161019a9190612bec565b60405180910390f35b6101bd60048036038101906101b89190612c4e565b6109eb565b005b6101d960048036038101906101d49190612cbd565b61124e565b6040516101e69190612d3f565b60405180910390f35b61020960048036038101906102049190612d97565b6112ee565b604051610217929190612e21565b60405180910390f35b61023a60048036038101906102359190612ff6565b61143f565b005b610244611529565b604051610251919061305a565b60405180910390f35b610274600480360381019061026f9190613075565b61157d565b604051610281919061305a565b60405180910390f35b610292611956565b60405161029f9190613311565b60405180910390f35b6102b0611b16565b6040516102bd919061344c565b60405180910390f35b6102e060048036038101906102db9190612d97565b611c1b565b6040516102ef9392919061347d565b60405180910390f35b610300611d17565b60405161030d91906135ba565b60405180910390f35b610330600480360381019061032b9190612d97565b611e5e565b60405161033f939291906135dc565b60405180910390f35b61035061203d565b60405161035d9190613748565b60405180910390f35b61036e61228f565b60405161037b91906137c9565b60405180910390f35b61038c6122b5565b6040516103999190613931565b60405180910390f35b6000600160009054906101000a900473ffffffffffffffffffffffffffffffffffffffff1673ffffffffffffffffffffffffffffffffffffffff16634130276b846040518263ffffffff1660e01b81526004016103ff9190613953565b600060405180830381865afa15801561041c573d6000803e3d6000fd5b505050506040513d6000823e3d601f19601f820116820180604052508101906104459190613a76565b905060011515816000015115151461045c57600080fd5b600560009054906101000a900473ffffffffffffffffffffffffffffffffffffffff1673ffffffffffffffffffffffffffffffffffffffff16636900a3ae426040518263ffffffff1660e01b81526004016104b79190613ace565b600060405180830381865afa1580156104d4573d6000803e3d6000fd5b505050506040513d6000823e3d601f19601f820116820180604052508101906104fd9190613ae9565b8260800181905250600b82908060018154018082558091505060019003906000526020600020906005020160009091909190915060008201518160000160006101000a81548173ffffffffffffffffffffffffffffffffffffffff021916908373ffffffffffffffffffffffffffffffffffffffff160217905550602082015181600101908161058d9190613d34565b5060408201518160020190816105a39190613d34565b5060608201518160030190816105b99190613d34565b5060808201518160040190816105cf9190613d34565b505050505050565b6105df612679565b600960003373ffffffffffffffffffffffffffffffffffffffff1673ffffffffffffffffffffffffffffffffffffffff16815260200190815260200160002060405180604001604052908160008201805461063990613b61565b80601f016020809104026020016040519081016040528092919081815260200182805461066590613b61565b80156106b25780601f10610687576101008083540402835291602001916106b2565b820191906000526020600020905b81548152906001019060200180831161069557829003601f168201915b505050505081526020016001820160009054906101000a900473ffffffffffffffffffffffffffffffffffffffff1673ffffffffffffffffffffffffffffffffffffffff1673ffffffffffffffffffffffffffffffffffffffff1681525050905090565b61071e6126a9565b60011515600760003373ffffffffffffffffffffffffffffffffffffffff1673ffffffffffffffffffffffffffffffffffffffff16815260200190815260200160002060009054906101000a900460ff1615151461077b57600080fd5b61084b600660003373ffffffffffffffffffffffffffffffffffffffff1673ffffffffffffffffffffffffffffffffffffffff16815260200190815260200160002080546107c890613b61565b80601f01602080910402602001604051908101604052809291908181526020018280546107f490613b61565b80156108415780601f1061081657610100808354040283529160200191610841565b820191906000526020600020905b81548152906001019060200180831161082457829003601f168201915b50505050506125b2565b905090565b6108586126a9565b6000600160009054906101000a900473ffffffffffffffffffffffffffffffffffffffff1673ffffffffffffffffffffffffffffffffffffffff16634130276b856040518263ffffffff1660e01b81526004016108b59190613953565b600060405180830381865afa1580156108d2573d6000803e3d6000fd5b505050506040513d6000823e3d601f19601f820116820180604052508101906108fb9190613a76565b905060011515816000015115151461091257600080fd5b6109e2600660008573ffffffffffffffffffffffffffffffffffffffff1673ffffffffffffffffffffffffffffffffffffffff168152602001908152602001600020805461095f90613b61565b80601f016020809104026020016040519081016040528092919081815260200182805461098b90613b61565b80156109d85780601f106109ad576101008083540402835291602001916109d8565b820191906000526020600020905b8154815290600101906020018083116109bb57829003601f168201915b50505050506125b2565b91505092915050565b6000600160009054906101000a900473ffffffffffffffffffffffffffffffffffffffff1673ffffffffffffffffffffffffffffffffffffffff16634130276b856040518263ffffffff1660e01b8152600401610a489190613953565b600060405180830381865afa158015610a65573d6000803e3d6000fd5b505050506040513d6000823e3d601f19601f82011682018060405250810190610a8e9190613a76565b9050600115158160000151151514610adb576040517f08c379a0000000000000000000000000000000000000000000000000000000008152600401610ad290613e52565b60405180910390fd5b60011515600460009054906101000a900473ffffffffffffffffffffffffffffffffffffffff1673ffffffffffffffffffffffffffffffffffffffff1663bf3df26b85856040518363ffffffff1660e01b8152600401610b3c929190613e72565b602060405180830381865afa158015610b59573d6000803e3d6000fd5b505050506040513d601f19601f82011682018060405250810190610b7d9190613ea2565b15151480610c2c575060011515600260009054906101000a900473ffffffffffffffffffffffffffffffffffffffff1673ffffffffffffffffffffffffffffffffffffffff1663024e161886856040518363ffffffff1660e01b8152600401610be7929190613e72565b602060405180830381865afa158015610c04573d6000803e3d6000fd5b505050506040513d601f19601f82011682018060405250810190610c289190613ea2565b1515145b1561124357610c396126e6565b84816000019073ffffffffffffffffffffffffffffffffffffffff16908173ffffffffffffffffffffffffffffffffffffffff16815250508281602001819052506001816040019015159081151581525050600d60008573ffffffffffffffffffffffffffffffffffffffff1673ffffffffffffffffffffffffffffffffffffffff16815260200190815260200160002081908060018154018082558091505060019003906000526020600020906003020160009091909190915060008201518160000160006101000a81548173ffffffffffffffffffffffffffffffffffffffff021916908373ffffffffffffffffffffffffffffffffffffffff1602179055506020820151816001019081610d509190613d34565b5060408201518160020160006101000a81548160ff021916908315150217905550505060005b600c60008673ffffffffffffffffffffffffffffffffffffffff1673ffffffffffffffffffffffffffffffffffffffff1681526020019081526020016000208054905081101561123c578380519060200120600c60008773ffffffffffffffffffffffffffffffffffffffff1673ffffffffffffffffffffffffffffffffffffffff1681526020019081526020016000208281548110610e1957610e18613ecf565b5b9060005260206000209060030201600001604051610e379190613fa1565b60405180910390200361122f5760006040518060400160405280600c60008973ffffffffffffffffffffffffffffffffffffffff1673ffffffffffffffffffffffffffffffffffffffff1681526020019081526020016000208481548110610ea257610ea1613ecf565b5b90600052602060002090600302016000018054610ebe90613b61565b80601f0160208091040260200160405190810160405280929190818152602001828054610eea90613b61565b8015610f375780601f10610f0c57610100808354040283529160200191610f37565b820191906000526020600020905b815481529060010190602001808311610f1a57829003601f168201915b50505050508152602001600c60008973ffffffffffffffffffffffffffffffffffffffff1673ffffffffffffffffffffffffffffffffffffffff1681526020019081526020016000208481548110610f9257610f91613ecf565b5b90600052602060002090600302016001018054610fae90613b61565b80601f0160208091040260200160405190810160405280929190818152602001828054610fda90613b61565b80156110275780601f10610ffc57610100808354040283529160200191611027565b820191906000526020600020905b81548152906001019060200180831161100a57829003601f168201915b50505050508152509050600e60008873ffffffffffffffffffffffffffffffffffffffff1673ffffffffffffffffffffffffffffffffffffffff16815260200190815260200160002081908060018154018082558091505060019003906000526020600020906002020160009091909190915060008201518160000190816110af9190613d34565b5060208201518160010190816110c59190613d34565b505050600060405180606001604052808973ffffffffffffffffffffffffffffffffffffffff168152602001878152602001600560009054906101000a900473ffffffffffffffffffffffffffffffffffffffff1673ffffffffffffffffffffffffffffffffffffffff16636900a3ae426040518263ffffffff1660e01b81526004016111529190613ace565b600060405180830381865afa15801561116f573d6000803e3d6000fd5b505050506040513d6000823e3d601f19601f820116820180604052508101906111989190613ae9565b8152509050600360009054906101000a900473ffffffffffffffffffffffffffffffffffffffff1673ffffffffffffffffffffffffffffffffffffffff166393dd86a288836040518363ffffffff1660e01b81526004016111fa92919061400f565b600060405180830381600087803b15801561121457600080fd5b505af1158015611228573d6000803e3d6000fd5b5050505050505b8080600101915050610d76565b5050611248565b600080fd5b50505050565b6006602052806000526040600020600091509050805461126d90613b61565b80601f016020809104026020016040519081016040528092919081815260200182805461129990613b61565b80156112e65780601f106112bb576101008083540402835291602001916112e6565b820191906000526020600020905b8154815290600101906020018083116112c957829003601f168201915b505050505081565b600e602052816000526040600020818154811061130a57600080fd5b90600052602060002090600202016000915091505080600001805461132e90613b61565b80601f016020809104026020016040519081016040528092919081815260200182805461135a90613b61565b80156113a75780601f1061137c576101008083540402835291602001916113a7565b820191906000526020600020905b81548152906001019060200180831161138a57829003601f168201915b5050505050908060010180546113bc90613b61565b80601f01602080910402602001604051908101604052809291908181526020018280546113e890613b61565b80156114355780601f1061140a57610100808354040283529160200191611435565b820191906000526020600020905b81548152906001019060200180831161141857829003601f168201915b5050505050905082565b60005b81518110156115255760008282815181106114605761145f613ecf565b5b60200260200101519050600c60003373ffffffffffffffffffffffffffffffffffffffff1673ffffffffffffffffffffffffffffffffffffffff16815260200190815260200160002081908060018154018082558091505060019003906000526020600020906003020160009091909190915060008201518160000190816114e89190613d34565b5060208201518160010190816114fe9190613d34565b5060408201518160020190816115149190613d34565b505050508080600101915050611442565b5050565b6000600760003373ffffffffffffffffffffffffffffffffffffffff1673ffffffffffffffffffffffffffffffffffffffff16815260200190815260200160002060009054906101000a900460ff16905090565b6000600760003373ffffffffffffffffffffffffffffffffffffffff1673ffffffffffffffffffffffffffffffffffffffff16815260200190815260200160002060009054906101000a900460ff161561160c576040517f08c379a00000000000000000000000000000000000000000000000000000000081526004016116039061408b565b60405180910390fd5b60005b600a805490508110156116db578960405160200161162d91906140e7565b60405160208183030381529060405280519060200120600a828154811061165757611656613ecf565b5b90600052602060002090600202016000016040516020016116789190614181565b60405160208183030381529060405280519060200120036116ce576040517f08c379a00000000000000000000000000000000000000000000000000000000081526004016116c59061420a565b60405180910390fd5b808060010191505061160f565b506116e4612679565b33816020019073ffffffffffffffffffffffffffffffffffffffff16908173ffffffffffffffffffffffffffffffffffffffff1681525050898160000181905250600a81908060018154018082558091505060019003906000526020600020906002020160009091909190915060008201518160000190816117669190613d34565b5060208201518160010160006101000a81548173ffffffffffffffffffffffffffffffffffffffff021916908373ffffffffffffffffffffffffffffffffffffffff16021790555050506001600760003373ffffffffffffffffffffffffffffffffffffffff1673ffffffffffffffffffffffffffffffffffffffff16815260200190815260200160002060006101000a81548160ff02191690831515021790555080600960003373ffffffffffffffffffffffffffffffffffffffff1673ffffffffffffffffffffffffffffffffffffffff168152602001908152602001600020600082015181600001908161185d9190613d34565b5060208201518160010160006101000a81548173ffffffffffffffffffffffffffffffffffffffff021916908373ffffffffffffffffffffffffffffffffffffffff1602179055509050506118b06126a9565b898160000181905250888160200181905250878160400181905250868160600181905250858160800181905250848160a00181905250838160c001819052506118f881612628565b600660003373ffffffffffffffffffffffffffffffffffffffff1673ffffffffffffffffffffffffffffffffffffffff16815260200190815260200160002090816119439190614285565b5060019250505098975050505050505050565b6060600e60003373ffffffffffffffffffffffffffffffffffffffff1673ffffffffffffffffffffffffffffffffffffffff168152602001908152602001600020805480602002602001604051908101604052809291908181526020016000905b82821015611b0d57838290600052602060002090600202016040518060400160405290816000820180546119ea90613b61565b80601f0160208091040260200160405190810160405280929190818152602001828054611a1690613b61565b8015611a635780601f10611a3857610100808354040283529160200191611a63565b820191906000526020600020905b815481529060010190602001808311611a4657829003601f168201915b50505050508152602001600182018054611a7c90613b61565b80601f0160208091040260200160405190810160405280929190818152602001828054611aa890613b61565b8015611af55780601f10611aca57610100808354040283529160200191611af5565b820191906000526020600020905b815481529060010190602001808311611ad857829003601f168201915b505050505081525050815260200190600101906119b7565b50505050905090565b606060011515600760003373ffffffffffffffffffffffffffffffffffffffff1673ffffffffffffffffffffffffffffffffffffffff16815260200190815260200160002060009054906101000a900460ff16151514611b7557600080fd5b600360009054906101000a900473ffffffffffffffffffffffffffffffffffffffff1673ffffffffffffffffffffffffffffffffffffffff1663547b5c0c336040518263ffffffff1660e01b8152600401611bd09190613953565b600060405180830381865afa158015611bed573d6000803e3d6000fd5b505050506040513d6000823e3d601f19601f82011682018060405250810190611c1691906144e9565b905090565b600d6020528160005260406000208181548110611c3757600080fd5b9060005260206000209060030201600091509150508060000160009054906101000a900473ffffffffffffffffffffffffffffffffffffffff1690806001018054611c8190613b61565b80601f0160208091040260200160405190810160405280929190818152602001828054611cad90613b61565b8015611cfa5780601f10611ccf57610100808354040283529160200191611cfa565b820191906000526020600020905b815481529060010190602001808311611cdd57829003601f168201915b5050505050908060020160009054906101000a900460ff16905083565b6060600a805480602002602001604051908101604052809291908181526020016000905b82821015611e555783829060005260206000209060020201604051806040016040529081600082018054611d6e90613b61565b80601f0160208091040260200160405190810160405280929190818152602001828054611d9a90613b61565b8015611de75780601f10611dbc57610100808354040283529160200191611de7565b820191906000526020600020905b815481529060010190602001808311611dca57829003601f168201915b505050505081526020016001820160009054906101000a900473ffffffffffffffffffffffffffffffffffffffff1673ffffffffffffffffffffffffffffffffffffffff1673ffffffffffffffffffffffffffffffffffffffff168152505081526020019060010190611d3b565b50505050905090565b600c6020528160005260406000208181548110611e7a57600080fd5b906000526020600020906003020160009150915050806000018054611e9e90613b61565b80601f0160208091040260200160405190810160405280929190818152602001828054611eca90613b61565b8015611f175780601f10611eec57610100808354040283529160200191611f17565b820191906000526020600020905b815481529060010190602001808311611efa57829003601f168201915b505050505090806001018054611f2c90613b61565b80601f0160208091040260200160405190810160405280929190818152602001828054611f5890613b61565b8015611fa55780601f10611f7a57610100808354040283529160200191611fa5565b820191906000526020600020905b815481529060010190602001808311611f8857829003601f168201915b505050505090806002018054611fba90613b61565b80601f0160208091040260200160405190810160405280929190818152602001828054611fe690613b61565b80156120335780601f1061200857610100808354040283529160200191612033565b820191906000526020600020905b81548152906001019060200180831161201657829003601f168201915b5050505050905083565b6060600c60003373ffffffffffffffffffffffffffffffffffffffff1673ffffffffffffffffffffffffffffffffffffffff168152602001908152602001600020805480602002602001604051908101604052809291908181526020016000905b8282101561228657838290600052602060002090600302016040518060600160405290816000820180546120d190613b61565b80601f01602080910402602001604051908101604052809291908181526020018280546120fd90613b61565b801561214a5780601f1061211f5761010080835404028352916020019161214a565b820191906000526020600020905b81548152906001019060200180831161212d57829003601f168201915b5050505050815260200160018201805461216390613b61565b80601f016020809104026020016040519081016040528092919081815260200182805461218f90613b61565b80156121dc5780601f106121b1576101008083540402835291602001916121dc565b820191906000526020600020905b8154815290600101906020018083116121bf57829003601f168201915b505050505081526020016002820180546121f590613b61565b80601f016020809104026020016040519081016040528092919081815260200182805461222190613b61565b801561226e5780601f106122435761010080835404028352916020019161226e565b820191906000526020600020905b81548152906001019060200180831161225157829003601f168201915b5050505050815250508152602001906001019061209e565b50505050905090565b600260009054906101000a900473ffffffffffffffffffffffffffffffffffffffff1681565b6060600b805480602002602001604051908101604052809291908181526020016000905b828210156125a957838290600052602060002090600502016040518060a00160405290816000820160009054906101000a900473ffffffffffffffffffffffffffffffffffffffff1673ffffffffffffffffffffffffffffffffffffffff1673ffffffffffffffffffffffffffffffffffffffff16815260200160018201805461236290613b61565b80601f016020809104026020016040519081016040528092919081815260200182805461238e90613b61565b80156123db5780601f106123b0576101008083540402835291602001916123db565b820191906000526020600020905b8154815290600101906020018083116123be57829003601f168201915b505050505081526020016002820180546123f490613b61565b80601f016020809104026020016040519081016040528092919081815260200182805461242090613b61565b801561246d5780601f106124425761010080835404028352916020019161246d565b820191906000526020600020905b81548152906001019060200180831161245057829003601f168201915b5050505050815260200160038201805461248690613b61565b80601f01602080910402602001604051908101604052809291908181526020018280546124b290613b61565b80156124ff5780601f106124d4576101008083540402835291602001916124ff565b820191906000526020600020905b8154815290600101906020018083116124e257829003601f168201915b5050505050815260200160048201805461251890613b61565b80601f016020809104026020016040519081016040528092919081815260200182805461254490613b61565b80156125915780601f1061256657610100808354040283529160200191612591565b820191906000526020600020905b81548152906001019060200180831161257457829003601f168201915b505050505081525050815260200190600101906122d9565b50505050905090565b6125ba6126a9565b6000806000806000806000888060200190518101906125d99190614532565b96509650965096509650965096506040518060e0016040528088815260200187815260200186815260200185815260200184815260200183815260200182815250975050505050505050919050565b6060816000015182602001518360400151846060015185608001518660a001518760c001516040516020016126639796959493929190614698565b6040516020818303038152906040529050919050565b604051806040016040528060608152602001600073ffffffffffffffffffffffffffffffffffffffff1681525090565b6040518060e00160405280606081526020016060815260200160608152602001606081526020016060815260200160608152602001606081525090565b6040518060600160405280600073ffffffffffffffffffffffffffffffffffffffff168152602001606081526020016000151581525090565b6000604051905090565b600080fd5b600080fd5b600073ffffffffffffffffffffffffffffffffffffffff82169050919050565b600061275e82612733565b9050919050565b61276e81612753565b811461277957600080fd5b50565b60008135905061278b81612765565b92915050565b600080fd5b6000601f19601f8301169050919050565b7f4e487b7100000000000000000000000000000000000000000000000000000000600052604160045260246000fd5b6127df82612796565b810181811067ffffffffffffffff821117156127fe576127fd6127a7565b5b80604052505050565b600061281161271f565b905061281d82826127d6565b919050565b600080fd5b600080fd5b600080fd5b600067ffffffffffffffff82111561284c5761284b6127a7565b5b61285582612796565b9050602081019050919050565b82818337600083830152505050565b600061288461287f84612831565b612807565b9050828152602081018484840111156128a05761289f61282c565b5b6128ab848285612862565b509392505050565b600082601f8301126128c8576128c7612827565b5b81356128d8848260208601612871565b91505092915050565b600060a082840312156128f7576128f6612791565b5b61290160a0612807565b905060006129118482850161277c565b600083015250602082013567ffffffffffffffff81111561293557612934612822565b5b612941848285016128b3565b602083015250604082013567ffffffffffffffff81111561296557612964612822565b5b612971848285016128b3565b604083015250606082013567ffffffffffffffff81111561299557612994612822565b5b6129a1848285016128b3565b606083015250608082013567ffffffffffffffff8111156129c5576129c4612822565b5b6129d1848285016128b3565b60808301525092915050565b600080604083850312156129f4576129f3612729565b5b6000612a028582860161277c565b925050602083013567ffffffffffffffff811115612a2357612a2261272e565b5b612a2f858286016128e1565b9150509250929050565b600081519050919050565b600082825260208201905092915050565b60005b83811015612a73578082015181840152602081019050612a58565b60008484015250505050565b6000612a8a82612a39565b612a948185612a44565b9350612aa4818560208601612a55565b612aad81612796565b840191505092915050565b612ac181612753565b82525050565b60006040830160008301518482036000860152612ae48282612a7f565b9150506020830151612af96020860182612ab8565b508091505092915050565b60006020820190508181036000830152612b1e8184612ac7565b905092915050565b600060e0830160008301518482036000860152612b438282612a7f565b91505060208301518482036020860152612b5d8282612a7f565b91505060408301518482036040860152612b778282612a7f565b91505060608301518482036060860152612b918282612a7f565b91505060808301518482036080860152612bab8282612a7f565b91505060a083015184820360a0860152612bc58282612a7f565b91505060c083015184820360c0860152612bdf8282612a7f565b9150508091505092915050565b60006020820190508181036000830152612c068184612b26565b905092915050565b60008060408385031215612c2557612c24612729565b5b6000612c338582860161277c565b9250506020612c448582860161277c565b9150509250929050565b600080600060608486031215612c6757612c66612729565b5b6000612c758682870161277c565b9350506020612c868682870161277c565b925050604084013567ffffffffffffffff811115612ca757612ca661272e565b5b612cb3868287016128b3565b9150509250925092565b600060208284031215612cd357612cd2612729565b5b6000612ce18482850161277c565b91505092915050565b600081519050919050565b600082825260208201905092915050565b6000612d1182612cea565b612d1b8185612cf5565b9350612d2b818560208601612a55565b612d3481612796565b840191505092915050565b60006020820190508181036000830152612d598184612d06565b905092915050565b6000819050919050565b612d7481612d61565b8114612d7f57600080fd5b50565b600081359050612d9181612d6b565b92915050565b60008060408385031215612dae57612dad612729565b5b6000612dbc8582860161277c565b9250506020612dcd85828601612d82565b9150509250929050565b600082825260208201905092915050565b6000612df382612a39565b612dfd8185612dd7565b9350612e0d818560208601612a55565b612e1681612796565b840191505092915050565b60006040820190508181036000830152612e3b8185612de8565b90508181036020830152612e4f8184612de8565b90509392505050565b600067ffffffffffffffff821115612e7357612e726127a7565b5b602082029050602081019050919050565b600080fd5b600060608284031215612e9f57612e9e612791565b5b612ea96060612807565b9050600082013567ffffffffffffffff811115612ec957612ec8612822565b5b612ed5848285016128b3565b600083015250602082013567ffffffffffffffff811115612ef957612ef8612822565b5b612f05848285016128b3565b602083015250604082013567ffffffffffffffff811115612f2957612f28612822565b5b612f35848285016128b3565b60408301525092915050565b6000612f54612f4f84612e58565b612807565b90508083825260208201905060208402830185811115612f7757612f76612e84565b5b835b81811015612fbe57803567ffffffffffffffff811115612f9c57612f9b612827565b5b808601612fa98982612e89565b85526020850194505050602081019050612f79565b5050509392505050565b600082601f830112612fdd57612fdc612827565b5b8135612fed848260208601612f41565b91505092915050565b60006020828403121561300c5761300b612729565b5b600082013567ffffffffffffffff81111561302a5761302961272e565b5b61303684828501612fc8565b91505092915050565b60008115159050919050565b6130548161303f565b82525050565b600060208201905061306f600083018461304b565b92915050565b600080600080600080600080610100898b03121561309657613095612729565b5b600089013567ffffffffffffffff8111156130b4576130b361272e565b5b6130c08b828c016128b3565b985050602089013567ffffffffffffffff8111156130e1576130e061272e565b5b6130ed8b828c016128b3565b975050604089013567ffffffffffffffff81111561310e5761310d61272e565b5b61311a8b828c016128b3565b965050606089013567ffffffffffffffff81111561313b5761313a61272e565b5b6131478b828c016128b3565b955050608089013567ffffffffffffffff8111156131685761316761272e565b5b6131748b828c016128b3565b94505060a089013567ffffffffffffffff8111156131955761319461272e565b5b6131a18b828c016128b3565b93505060c089013567ffffffffffffffff8111156131c2576131c161272e565b5b6131ce8b828c016128b3565b92505060e089013567ffffffffffffffff8111156131ef576131ee61272e565b5b6131fb8b828c016128b3565b9150509295985092959890939650565b600081519050919050565b600082825260208201905092915050565b6000819050602082019050919050565b600060408301600083015184820360008601526132548282612a7f565b9150506020830151848203602086015261326e8282612a7f565b9150508091505092915050565b60006132878383613237565b905092915050565b6000602082019050919050565b60006132a78261320b565b6132b18185613216565b9350836020820285016132c385613227565b8060005b858110156132ff57848403895281516132e0858261327b565b94506132eb8361328f565b925060208a019950506001810190506132c7565b50829750879550505050505092915050565b6000602082019050818103600083015261332b818461329c565b905092915050565b600081519050919050565b600082825260208201905092915050565b6000819050602082019050919050565b60006060830160008301516133776000860182612ab8565b506020830151848203602086015261338f8282612a7f565b915050604083015184820360408601526133a98282612a7f565b9150508091505092915050565b60006133c2838361335f565b905092915050565b6000602082019050919050565b60006133e282613333565b6133ec818561333e565b9350836020820285016133fe8561334f565b8060005b8581101561343a578484038952815161341b85826133b6565b9450613426836133ca565b925060208a01995050600181019050613402565b50829750879550505050505092915050565b6000602082019050818103600083015261346681846133d7565b905092915050565b61347781612753565b82525050565b6000606082019050613492600083018661346e565b81810360208301526134a48185612de8565b90506134b3604083018461304b565b949350505050565b600081519050919050565b600082825260208201905092915050565b6000819050602082019050919050565b600060408301600083015184820360008601526135048282612a7f565b91505060208301516135196020860182612ab8565b508091505092915050565b600061353083836134e7565b905092915050565b6000602082019050919050565b6000613550826134bb565b61355a81856134c6565b93508360208202850161356c856134d7565b8060005b858110156135a857848403895281516135898582613524565b945061359483613538565b925060208a01995050600181019050613570565b50829750879550505050505092915050565b600060208201905081810360008301526135d48184613545565b905092915050565b600060608201905081810360008301526135f68186612de8565b9050818103602083015261360a8185612de8565b9050818103604083015261361e8184612de8565b9050949350505050565b600081519050919050565b600082825260208201905092915050565b6000819050602082019050919050565b600060608301600083015184820360008601526136718282612a7f565b9150506020830151848203602086015261368b8282612a7f565b915050604083015184820360408601526136a58282612a7f565b9150508091505092915050565b60006136be8383613654565b905092915050565b6000602082019050919050565b60006136de82613628565b6136e88185613633565b9350836020820285016136fa85613644565b8060005b85811015613736578484038952815161371785826136b2565b9450613722836136c6565b925060208a019950506001810190506136fe565b50829750879550505050505092915050565b6000602082019050818103600083015261376281846136d3565b905092915050565b6000819050919050565b600061378f61378a61378584612733565b61376a565b612733565b9050919050565b60006137a182613774565b9050919050565b60006137b382613796565b9050919050565b6137c3816137a8565b82525050565b60006020820190506137de60008301846137ba565b92915050565b600081519050919050565b600082825260208201905092915050565b6000819050602082019050919050565b600060a0830160008301516138286000860182612ab8565b50602083015184820360208601526138408282612a7f565b9150506040830151848203604086015261385a8282612a7f565b915050606083015184820360608601526138748282612a7f565b9150506080830151848203608086015261388e8282612a7f565b9150508091505092915050565b60006138a78383613810565b905092915050565b6000602082019050919050565b60006138c7826137e4565b6138d181856137ef565b9350836020820285016138e385613800565b8060005b8581101561391f5784840389528151613900858261389b565b945061390b836138af565b925060208a019950506001810190506138e7565b50829750879550505050505092915050565b6000602082019050818103600083015261394b81846138bc565b905092915050565b6000602082019050613968600083018461346e565b92915050565b6139778161303f565b811461398257600080fd5b50565b6000815190506139948161396e565b92915050565b60006139ad6139a884612831565b612807565b9050828152602081018484840111156139c9576139c861282c565b5b6139d4848285612a55565b509392505050565b600082601f8301126139f1576139f0612827565b5b8151613a0184826020860161399a565b91505092915050565b600060408284031215613a2057613a1f612791565b5b613a2a6040612807565b90506000613a3a84828501613985565b600083015250602082015167ffffffffffffffff811115613a5e57613a5d612822565b5b613a6a848285016139dc565b60208301525092915050565b600060208284031215613a8c57613a8b612729565b5b600082015167ffffffffffffffff811115613aaa57613aa961272e565b5b613ab684828501613a0a565b91505092915050565b613ac881612d61565b82525050565b6000602082019050613ae36000830184613abf565b92915050565b600060208284031215613aff57613afe612729565b5b600082015167ffffffffffffffff811115613b1d57613b1c61272e565b5b613b29848285016139dc565b91505092915050565b7f4e487b7100000000000000000000000000000000000000000000000000000000600052602260045260246000fd5b60006002820490506001821680613b7957607f821691505b602082108103613b8c57613b8b613b32565b5b50919050565b60008190508160005260206000209050919050565b60006020601f8301049050919050565b600082821b905092915050565b600060088302613bf47fffffffffffffffffffffffffffffffffffffffffffffffffffffffffffffffff82613bb7565b613bfe8683613bb7565b95508019841693508086168417925050509392505050565b6000613c31613c2c613c2784612d61565b61376a565b612d61565b9050919050565b6000819050919050565b613c4b83613c16565b613c5f613c5782613c38565b848454613bc4565b825550505050565b600090565b613c74613c67565b613c7f818484613c42565b505050565b5b81811015613ca357613c98600082613c6c565b600181019050613c85565b5050565b601f821115613ce857613cb981613b92565b613cc284613ba7565b81016020851015613cd1578190505b613ce5613cdd85613ba7565b830182613c84565b50505b505050565b600082821c905092915050565b6000613d0b60001984600802613ced565b1980831691505092915050565b6000613d248383613cfa565b9150826002028217905092915050565b613d3d82612a39565b67ffffffffffffffff811115613d5657613d556127a7565b5b613d608254613b61565b613d6b828285613ca7565b600060209050601f831160018114613d9e5760008415613d8c578287015190505b613d968582613d18565b865550613dfe565b601f198416613dac86613b92565b60005b82811015613dd457848901518255600182019150602085019450602081019050613daf565b86831015613df15784890151613ded601f891682613cfa565b8355505b6001600288020188555050505b505050505050565b7f5573657220766572696669636174696f6e206661696c65640000000000000000600082015250565b6000613e3c601883612dd7565b9150613e4782613e06565b602082019050919050565b60006020820190508181036000830152613e6b81613e2f565b9050919050565b6000604082019050613e87600083018561346e565b8181036020830152613e998184612de8565b90509392505050565b600060208284031215613eb857613eb7612729565b5b6000613ec684828501613985565b91505092915050565b7f4e487b7100000000000000000000000000000000000000000000000000000000600052603260045260246000fd5b600081905092915050565b60008190508160005260206000209050919050565b60008154613f2b81613b61565b613f358186613efe565b94506001821660008114613f505760018114613f6557613f98565b60ff1983168652811515820286019350613f98565b613f6e85613f09565b60005b83811015613f9057815481890152600182019150602081019050613f71565b838801955050505b50505092915050565b6000613fad8284613f1e565b915081905092915050565b6000606083016000830151613fd06000860182612ab8565b5060208301518482036020860152613fe88282612a7f565b915050604083015184820360408601526140028282612a7f565b9150508091505092915050565b6000604082019050614024600083018561346e565b81810360208301526140368184613fb8565b90509392505050565b7f43535020416c7265616479205265676973746572656400000000000000000000600082015250565b6000614075601683612dd7565b91506140808261403f565b602082019050919050565b600060208201905081810360008301526140a481614068565b9050919050565b600081905092915050565b60006140c182612a39565b6140cb81856140ab565b93506140db818560208601612a55565b80840191505092915050565b60006140f382846140b6565b915081905092915050565b6000815461410b81613b61565b61411581866140ab565b94506001821660008114614130576001811461414557614178565b60ff1983168652811515820286019350614178565b61414e85613b92565b60005b8381101561417057815481890152600182019150602081019050614151565b838801955050505b50505092915050565b600061418d82846140fe565b915081905092915050565b7f43535020616c726561647920526567697374657265642077697468207468697360008201527f206e616d65000000000000000000000000000000000000000000000000000000602082015250565b60006141f4602583612dd7565b91506141ff82614198565b604082019050919050565b60006020820190508181036000830152614223816141e7565b9050919050565b60008190508160005260206000209050919050565b601f821115614280576142518161422a565b61425a84613ba7565b81016020851015614269578190505b61427d61427585613ba7565b830182613c84565b50505b505050565b61428e82612cea565b67ffffffffffffffff8111156142a7576142a66127a7565b5b6142b18254613b61565b6142bc82828561423f565b600060209050601f8311600181146142ef57600084156142dd578287015190505b6142e78582613d18565b86555061434f565b601f1984166142fd8661422a565b60005b8281101561432557848901518255600182019150602085019450602081019050614300565b86831015614342578489015161433e601f891682613cfa565b8355505b6001600288020188555050505b505050505050565b600067ffffffffffffffff821115614372576143716127a7565b5b602082029050602081019050919050565b60008151905061439281612765565b92915050565b6000606082840312156143ae576143ad612791565b5b6143b86060612807565b905060006143c884828501614383565b600083015250602082015167ffffffffffffffff8111156143ec576143eb612822565b5b6143f8848285016139dc565b602083015250604082015167ffffffffffffffff81111561441c5761441b612822565b5b614428848285016139dc565b60408301525092915050565b600061444761444284614357565b612807565b9050808382526020820190506020840283018581111561446a57614469612e84565b5b835b818110156144b157805167ffffffffffffffff81111561448f5761448e612827565b5b80860161449c8982614398565b8552602085019450505060208101905061446c565b5050509392505050565b600082601f8301126144d0576144cf612827565b5b81516144e0848260208601614434565b91505092915050565b6000602082840312156144ff576144fe612729565b5b600082015167ffffffffffffffff81111561451d5761451c61272e565b5b614529848285016144bb565b91505092915050565b600080600080600080600060e0888a03121561455157614550612729565b5b600088015167ffffffffffffffff81111561456f5761456e61272e565b5b61457b8a828b016139dc565b975050602088015167ffffffffffffffff81111561459c5761459b61272e565b5b6145a88a828b016139dc565b965050604088015167ffffffffffffffff8111156145c9576145c861272e565b5b6145d58a828b016139dc565b955050606088015167ffffffffffffffff8111156145f6576145f561272e565b5b6146028a828b016139dc565b945050608088015167ffffffffffffffff8111156146235761462261272e565b5b61462f8a828b016139dc565b93505060a088015167ffffffffffffffff8111156146505761464f61272e565b5b61465c8a828b016139dc565b92505060c088015167ffffffffffffffff81111561467d5761467c61272e565b5b6146898a828b016139dc565b91505092959891949750929550565b600060e08201905081810360008301526146b2818a612de8565b905081810360208301526146c68189612de8565b905081810360408301526146da8188612de8565b905081810360608301526146ee8187612de8565b905081810360808301526147028186612de8565b905081810360a08301526147168185612de8565b905081810360c083015261472a8184612de8565b90509897505050505050505056fea2646970667358221220b9307ce5a3fc1e74e3d31a95387255338a8224a6401d370a4c88f3d44b16873a64736f6c63430008170033608060405234801561001057600080fd5b50610441806100206000396000f3fe608060405234801561001057600080fd5b506004361061002b5760003560e01c80636900a3ae14610030575b600080fd5b61004a600480360381019061004591906102ce565b610060565b604051610057919061038b565b60405180910390f35b606061006b82610072565b9050919050565b60606000600161008184610140565b01905060008167ffffffffffffffff8111156100a05761009f6103ad565b5b6040519080825280601f01601f1916602001820160405280156100d25781602001600182028036833780820191505090505b509050600082602001820190505b600115610135578080600190039150507f3031323334353637383961626364656600000000000000000000000000000000600a86061a8153600a8581610129576101286103dc565b5b049450600085036100e0575b819350505050919050565b600080600090507a184f03e93ff9f4daa797ed6e38ed64bf6a1f010000000000000000831061019e577a184f03e93ff9f4daa797ed6e38ed64bf6a1f0100000000000000008381610194576101936103dc565b5b0492506040810190505b6d04ee2d6d415b85acef810000000083106101db576d04ee2d6d415b85acef810000000083816101d1576101d06103dc565b5b0492506020810190505b662386f26fc10000831061020a57662386f26fc100008381610200576101ff6103dc565b5b0492506010810190505b6305f5e1008310610233576305f5e1008381610229576102286103dc565b5b0492506008810190505b612710831061025857612710838161024e5761024d6103dc565b5b0492506004810190505b6064831061027b5760648381610271576102706103dc565b5b0492506002810190505b600a831061028a576001810190505b80915050919050565b600080fd5b6000819050919050565b6102ab81610298565b81146102b657600080fd5b50565b6000813590506102c8816102a2565b92915050565b6000602082840312156102e4576102e3610293565b5b60006102f2848285016102b9565b91505092915050565b600081519050919050565b600082825260208201905092915050565b60005b8381101561033557808201518184015260208101905061031a565b60008484015250505050565b6000601f19601f8301169050919050565b600061035d826102fb565b6103678185610306565b9350610377818560208601610317565b61038081610341565b840191505092915050565b600060208201905081810360008301526103a58184610352565b905092915050565b7f4e487b7100000000000000000000000000000000000000000000000000000000600052604160045260246000fd5b7f4e487b7100000000000000000000000000000000000000000000000000000000600052601260045260246000fdfea2646970667358221220b8cb8f6f7510d5e77b7d633770d7b70f1b9105ec926bafebf20bd0ec7a65187f64736f6c63430008170033",
  "linkReferences": {},
  "deployedLinkReferences": {}
}